:020000040000fa
:080000000002040000000000f2
:020000040000fa
:10040000cf1921000eff27000e0188000000000018
:100410000c00070020692900010020000f000700e0
:10042000000020000000e000020032000000020096
:10043000000000009cae0200000000000040da0056
:100440000000fe00603e20000000e00002003200dc
:10045000002020009001880000000600a102880012
:10046000800078000000eb001a003700e2804000b6
:1004700054a0b4009101ba00e280400054a0b4003e
:100480009102ba00e280400054a0b4000002eb00e8
:10049000472bde00f507b200a6018800602ce100c2
:1004a00008003a000049eb000201e80002003900b0
:1004b0003420ec0002f0a0008301e900f9ff3e00c7
:1004c000040037006128e100010032000082eb00e7
:1004d000040007001101ba000200e000e3ff3a0047
:1004e0000000060004d0a300e20f49001c00390000
:1004f000810278003549ba000201e80002003900a3
:100500003420ec0002f0a0008301e9000f0032006b
:100510002549ba000201e800020039003420ec004d
:1005200002f0a0008301e900080032000400e000ae
:100530000600320015c9ba000201e80002003900c5
:100540003420ec0002f0a0008301e9008180e80083
:1005500054a0b4000300e000e2ff3a0000000600ef
:100560009102ba00055978008301e900f7ff3200d3
:10057000c82ade00055978008301e900f3ff320044
:100580000400e000f1ff320011d9ba00eeff37009d
:1005900036c20400000000004c900400000000007f
:1005a0009a66040000000000ec5f040000000000f8
:1005b000dc83040000000000b07f040000000000a5
:1005c000c68b040000000000b646040000000000d6
:1005d0001447040000000000c247040000000000af
:1005e000204b0400000000000c9a040000000000f2
:1005f00026c30400000000008c87040000000000f7
:10060000248f0400000000005c8f04000000000044
:100610000ab704000000000034830400000000005a
:1006200046830400000000004a610400000000004e
:100630006c610400000000001a8304000000000048
:10064000a683040000000000b6bf04000000000004
:100650003658040000000000b8a0040000000000ac
:10066000b83b04000000000032a2040000000000bb
:10067000bea2040000000000f4a20400000000007c
:100680003cb204000000000060b70400000000005d
:10069000449a040000000000be5d04000000000059
:1006a0000040da000000fe0003f0a200889fbe00b8
:1006b0008a9fbe008c1f780050010700570133004d
:1006c0006450e1004f0032006420e100520032002b
:1006d00003826c0007003b000905d0000306d00030
:1006e000820f54000c065d00020039000200320047
:1006f00089017800030678008582550004003d00da
:100700000003fd008103fd008502ea008b854200a5
:10071000840f720002003b0060001000e0801800af
:100720006011b8000005eb007a28e1000a003900ea
:1007300006007800c75ddd00f707b200878075000e
:100740002d003700828171000a0178006105600088
:100750008180d1000080d3008502e900f9ff3b00d1
:10076000060440008784480002003b006004140037
:10077000e0841c000988a300070032008a81710010
:1007800082817100610164008904d1000884d30072
:100790008b05e800170037000978a30013003a0022
:1007a0000b00e000130034008b05e900080444004e
:1007b00089844c000a4474000978a3000d003a00b3
:1007c0000b00e000070034008b05e900080444003a
:1007d00089844c0001003a000b0020000978a30036
:1007e000f7ff32000001eb00020037008281710048
:1007f0000a017800c60007000cf0a70001f0a00075
:100800000f0137006420e10002003a00838f6c0082
:100810000f0133000801be000200be0008013700ce
:10082000889fbe008a9fbe008c1f7800f3000700df
:10083000fa00330003866c006450e1002e003200a1
:100840006420e100330032006150e1002f003200eb
:100850006120e1003100320085855500eb07b000d2
:1008600009002000080420000500370008044400a7
:1008700089844c000a0031000603430087834b0043
:100880000001530081815b00f8ff33000203be00ca
:100890000800a0000804440089844c00f6ff3900d9
:1008a000c639dd008301730001003200130020000f
:1008b0008904d1000884d3000998a3000500320000
:1008c0000800a7000300a0008904d1000884d30019
:1008d0008b05e8008904d1000884d3000001eb00f7
:1008e0000281d2008a00070001f0a1000cf0a700ed
:1008f00001f0a000d20037006420e100d4003200f3
:100900000801be000200be00f7ff37006120e100d1
:10091000cf0032006000b800f3ff37000000200075
:1009200001f82700f0ff3700839f68000100e00016
:1009300002003d0060001000e08018000300e000ad
:1009400002003d0060011100e0811900060107006e
:100950004f00e00002003b0060001000e080180043
:1009600000000600140020002e023700f4ff2f00c4
:100970002c0237000001be008b0007000470a700a6
:1009800003f0a1006509b100160032000d0035002a
:100990006828e10006003500f0ff2f00f1ff270076
:1009a0000300e00013003b000100280000000500e8
:1009b00000004000818048008502e900fcff3a0009
:1009c00008003700f88f420002003c008000eb0076
:1009d000000005008100d1000080d3008502e800fe
:1009e000fcff3a000300e00002003b006000100042
:1009f000e0801800000006000001be006a00070049
:100a00000470a70003f0a10003f8a30013003a004c
:100a10006509b10010003200090035006928e100c5
:100a20000200350001002800000005000000400021
:100a3000818048008502e900fcff3a0000000600c2
:100a4000f88f4200050035008100d1000080d300fe
:100a50008502e800fcff3a00000006008000eb0081
:100a600000000500889fbe008a9fbe000105780037
:100a70000100e0000400350008003c000000e00038
:100a8000200032000500370060001000e0801800f0
:100a900002003b0001f02c001a0037000004be00e9
:100aa0006011b8006b0920000982cf0002003900f4
:100ab0000882cf000441b000694252000e003200ab
:100ac00008003b0082817100610164008904d1004b
:100ad0000884d3008b05e8000442e800f9ff3a00df
:100ae000050037000804440089844c008b05e900a8
:100af0000442e900fbff3a00050007000af0a700e6
:100b000001f0a0004f05be004f04be00000006002b
:100b100081002000618055000b003d000b0020008b
:100b200061fe2f000100e1001d0034008281710090
:100b3000610164008904d1000884d3000000e8004a
:100b4000faff3a00710020006100640003007000a9
:100b5000020060000900320061044400e0844c009f
:100b60000988a500050032008b05e8006808e1004f
:100b700002003a008904d1000884d300f20f20005b
:100b80000258e10005003d00c75ddd00f907b20035
:100b90008980750008007800000006000bf8270027
:100ba0008b00780000000500c70ade00f107b200e4
:100bb000f50fb20008003200e1cf4200020032001f
:100bc0000170a00024000500810f700001003200b8
:100bd0000408050044000500810f700002003a007f
:100be000140005008502e9000000400081c04800b3
:100bf000fcff3b000170a000240005000004be00c3
:100c0000e9ff07000003be000405be000200be00ad
:100c1000e5ff0700844f7500000006000200be00db
:100c20006450e100050036006420e1000200360057
:100c30000968a30001003a000800be000160a0009e
:100c40004f0678004f05be004f04be0000000600ae
:100c5000f0ff2f00f1ff2700f9ff3700811f780018
:100c60000100e00002003d0060001000e08018007c
:100c70000300e00002003d0060011100e081190066
:100c8000490007004f00e00002003b006000100038
:100c9000e080180000000600889fbe008a9fbe000a
:100ca0008c1f7800d5ff0700dcff330003866c0043
:100cb0006450e100240032006420e100270032008b
:100cc0006150e100220032006120e1002100320089
:100cd0008b854200eb07b1000134b800003ab80040
:100ce0000804420089844a00013ab8000030b80084
:100cf0008880400009014a000400330000004000e1
:100d000081804800020149008b05e900c909dd0026
:100d1000830170000100320013002000c814de00bf
:100d20004814dd004709de001200b200c808de00ea
:100d30000884700076ff070001f0a1000cf0a70006
:100d400001f0a000beff37006120e100c0ff3200cb
:100d50000801be000200be00f7ff37006150e1004d
:100d6000fcff3a00baff37006022b80006022000fc
:100d70000000d0008180d2000482d2008582d2009f
:100d80000000a0000202520083825a0003003100da
:100d90000202420083824a000000a1000603e9002b
:100da000f3ff3a0000000600efff07000400be005a
:100db00000000600881f7800000478005001be0083
:100dc0004000be0004004000858048000601490044
:100dd00087814900009cbe000294be000400e1002f
:100de0000588e1000690e1000798e100020031006b
:100df000680044001008e8004f0478000000060076
:100e0000f4874700889fbe008a9fbe008c9fbe006b
:100e10008e1f78000205be000004be00d4b79f00fc
:100e2000e5b79f00f6b79f0087bf9f000000eb006b
:100e3000c0b79f00b0b79f00a0b79f0090b79f00ba
:100e400080b79f000d042000bfb097004fb09700ff
:100e5000000140000000e0000f003d004f08de00f0
:100e600000007100c0b79f004d00070001003d0069
:100e7000120020005000070001003d001200200079
:100e80005500070061000700660007000f004000e2
:100e9000c8ff0700220037004f08de00000671007f
:100ea000ccb79f003e00070001003d00120020006b
:100eb0004100070001003d0012002000460007002d
:100ec000520007000fb297009fb297002fb3970010
:100ed000bfb39700590007000000520081805a00fc
:100ee00002015b0083815b0080b79f0091b79f0088
:100ef000a2b79f00b3b79f000007eb004f000700a9
:100f00000020e10001a8e10002b0e10003b8e10027
:100f1000010031001e0020000e005600c0b79f00e7
:100f20004fb297000400e0000700350010002000d9
:100f3000010020006011b80008047000898470006e
:100f40000a0571008b8571008d06e900beff3a002d
:100f50000400e00003003d00320007000f004000e5
:100f600094ff07004fa897000000e00004003a003b
:100f70000fb497009fb497002fb59700bfb59700a7
:100f80000800be000a01be004f0778004f06be00f1
:100f90004f05be004f04be004f01b1000000060027
:100fa0000180400090b79f000001eb008fb09700d8
:100fb0000100e000000006000200700090b79f00f2
:100fc0000180400080b79f000001eb00ffa8970060
:100fd0000100e000000006000200700080b79f00e2
:100fe000018040006faa9700cf20de000100700052
:100ff000f0af9f00040242000800be000a01be00dc
:101000004f18de000002720000000600e4af9f00ef
:101010000804440089844c000a054d008b854d006e
:10102000000006003fb29700cfb297005fb3970071
:10103000efb3970000fe2f00000006003fb09700be
:10104000cfb097005fb19700efb1970000000600a6
:10105000881f780018002000881f780068ff0700ac
:101060008f87e9004f04780000000600801feb0026
:1010700063ff07008f87e90000000600889fbe001d
:101080008a9fbe008c1f78000205be000004be00cf
:10109000e00f5000e08f5800e00f5900e08f59003a
:1010a0000c003d006000b8006011b800080450005a
:1010b000898458000a0559008b8559001c002000be
:1010c0001f00070008003d00180007000006eb00a5
:1010d000050037000006eb001900070002003d0084
:1010e0000f0007001c0020000800be000a01be001f
:1010f000d7ff07000203be000002be000c00e000a4
:1011000001003200060007000400be000601be0018
:101110004f0678004f05be004f04be0000000600d9
:101120006000b8006011b8000000370004025000f1
:101130008582580006035900878359000000060085
:10114000e00f5200e08f5a00e00f5b00e08f5b0081
:1011500000000600889fbe008a9fbe008c1f78009a
:101160000205be000004be00e00f5000e08f5800f2
:10117000e00f5900e08f59000a003d006000b80000
:101180006011b80008045000898458000a0559000d
:101190008b8559001c0020001800070007003d0047
:1011a000050037000006eb001400070003003d00b7
:1011b0006000b8006011b800150007000800be000c
:1011c0000a01be00a9ff07000203be000002be0024
:1011d0000c00e000030032006000b8006011b800ad
:1011e0000b0007000400be000601be004f06780099
:1011f0004f05be004f04be0000000600e00f520085
:10120000e08f5a00e00f5b00e08f5b0000000600fb
:101210000402500085825800060359008783590054
:1012200000000600889fbe008a9fbe00841f7800d1
:1012300072fe07004f00780011003300f0ff2f000e
:10124000838f6c0006003b00040565000a00a700c0
:101250000800370009f0a600100020000800370041
:10126000820f5400838f5c000300390010002000bf
:1012700001003e000000200009f0a7000000ea0085
:101280004f05be004f04be000000e0000000060055
:101290008001eb000200370061f079008301e80073
:1012a000828f5100fcff3a00000006008001eb0035
:1012b00002003700817178008301e800828f5100bd
:1012c000fcff3a0000000600800078003004e000d7
:1012d000feff3a00010050000000e9000000060097
:1012e0000003780080027800020278008001eb00a1
:1012f000080037000402e90063c07800805a7800d3
:101300008301e8000004e00002003a008000eb00e6
:1013100006003700828f5100f6ff3a00fbff3700ce
:101320000040eb0080f07a008100e800848f5000dc
:0c133000fbff3a000600780000000600f9
:020000040000fa
:020000040005f5
:0457f400ffec0000c6
:020000040000fa
:020000040005f5
:0457f800ad1b0000e5
:020000040000fa
:020000040005f5
:0457fc007f3e0000ec
:020000040000fa
:100008005003000050030000004100000a410000b6
:10001800500300005003000050030000500300008c
:10002800500300005003000050030000e8c0000027
:100038005003000050030000500300008abe000077
:1000480086c100005003000024b60000aeba0000cc
:10005800500300005003000050030000500300004c
:10006800f0b800005003000050030000fec200007a
:10007800500300005003000050030000500300002c
:10008800500300005003000050030000500300001c
:100098005003000050030000aeb100005003000000
:1000a80050030000500300005003000050030000fc
:1000b80050030000500300005003000050030000ec
:1000c80050030000500300005003000050030000dc
:1000d80050030000500300005003000050030000cc
:1000e80050030000500300005003000050030000bc
:1000f80050030000500300005003000050030000ac
:10010800500300005003000050030000500300009b
:10011800500300005003000050030000500300008b
:10012800500300005003000050030000500300007b
:10013800500300005003000050030000500300006b
:10014800500300005003000050030000500300005b
:10015800500300005003000050030000500300004b
:10016800500300005003000050030000500300003b
:10017800500300005003000050030000500300002b
:10018800500300005003000050030000500300001b
:10019800500300005003000050030000500300000b
:1001a80050030000500300005003000050030000fb
:1001b80050030000500300005003000050030000eb
:1001c80050030000500300005003000050030000db
:1001d80050030000500300005003000050030000cb
:1001e80050030000500300005003000050030000bb
:0801f800500300005003000059
:020000040000fa
:100208005003000050030000004100000a410000b4
:10021800500300005003000050030000500300008a
:10022800500300005003000050030000e8c0000025
:100238005003000050030000500300008abe000075
:1002480086c100005003000024b60000aeba0000ca
:10025800500300005003000050030000500300004a
:10026800f0b800005003000050030000fec2000078
:10027800500300005003000050030000500300002a
:10028800500300005003000050030000500300001a
:100298005003000050030000aeb1000050030000fe
:1002a80050030000500300005003000050030000fa
:1002b80050030000500300005003000050030000ea
:1002c80050030000500300005003000050030000da
:1002d80050030000500300005003000050030000ca
:1002e80050030000500300005003000050030000ba
:1002f80050030000500300005003000050030000aa
:100308005003000050030000500300005003000099
:100318005003000050030000500300005003000089
:100328005003000050030000500300005003000079
:100338005003000050030000500300005003000069
:100348005003000050030000500300005003000059
:100358005003000050030000500300005003000049
:100368005003000050030000500300005003000039
:100378005003000050030000500300005003000029
:100388005003000050030000500300005003000019
:100398005003000050030000500300005003000009
:1003a80050030000500300005003000050030000f9
:1003b80050030000500300005003000050030000e9
:1003c80050030000500300005003000050030000d9
:1003d80050030000500300005003000050030000c9
:1003e80050030000500300005003000050030000b9
:0803f800500300005003000057
:020000040000fa
:10133c009c09000001010000ffff0000d20e00001c
:10134c0001010000ffff00007c0e00000101000005
:10135c00ffff0000600e000001010000ffff000015
:10136c00de0e000001010000ffff00007e0e0000f9
:10137c0001010000ffff0000620e000001010000ef
:10138c00ffff0000580e000001010000ffff0000ed
:10139c00640e000001010000ffff0000660e00005b
:1013ac0001010000ffff00005e0e000001010000c3
:1013bc00ffff0000720e000001010000ffff0000a3
:1013cc00740e000001010000ffff00005c0e000025
:1013dc0001010000ffff00006e0e00000101000083
:1013ec00ffff0000700e000001010000ffff000075
:1013fc00220b000001020000ffff0000240b000084
:10140c0001010000ffff0000180b000001010000ab
:10141c00ffff0000160b000001010000ffff0000a1
:10142c004811000002020000000000005a110000e8
:10143c0002020000240000004a1100000202000019
:10144c00020000004c110000020200000400000029
:10145c004e110000020200000600000050110000b6
:10146c0002020000080000005211000002020000fd
:10147c000a00000054110000020200000c000000e1
:10148c0056110000020200000e0000009411000032
:10149c00020200001400000096110000020200007d
:1014ac001600000098110000020200001800000055
:1014bc009a110000020200001a00000074110000d2
:1014cc0002020000480000001c0f00000202000095
:1014dc002a0000001e0f0000020200002c00000079
:1014ec0076110000020200002e00000078110000ae
:1014fc0002020000300000007a110000020200001d
:10150c00320000007c1100000202000034000000d8
:10151c007e11000002020000360000008011000065
:10152c0002020000380000008211000002020000dc
:10153c003a000000d60e0000020200001c00000061
:10154c00d80e0000020200001e000000da0e00009f
:10155c000202000020000000dc0e0000020200006d
:10156c002200000072110000020200004200000084
:10157c0062110000020200003c0000006411000037
:10158c00020200004a000000661100000202000086
:10159c004c00000068110000020200004e00000028
:1015ac006a11000002020000500000006c110000e3
:1015bc0002020000520000006e1100000202000046
:1015cc0054000000701100000202000056000000e0
:1015dc00fa0e00000202000058000000fc0e000091
:1015ec00020200005a000000120f0000020200006c
:1015fc005c000000140f0000020200005e000000fe
:10160c00841100000202000040000000861100005e
:10161c0002020000600000008811000002020000bd
:10162c00620000008a110000020200006400000049
:10163c008c11000002020000660000008e110000f8
:10164c00020200006800000090110000020200007d
:10165c006a00000092110000020200006c00000001
:10166c00f40e0000020200006e000000f60e0000f6
:10167c0002020000700000000e0f000002020000c9
:10168c0072000000100f0000020200007400000045
:10169c002c11000002020000780000001e0b00005c
:1016ac00020200007c0000001c0b00000202000083
:1016bc007e000000281100000202000080000000e3
:1016cc005c11000002020000860000005e110000a8
:1016dc0002020000880000006011000002020000fd
:1016ec008a000000620f000001010000ffff0000f3
:1016fc00640f000001010000ffff0000946a00006d
:10170c0013660000ca610000b65d0000d6590000e7
:10171c0025560000a1520000484f0000174c000055
:10172c000d4900002746000058430000ac40000063
:10173c001f3e0000b03b00005d3900002637000062
:10174c000835000002330000143100003b2f00006c
:10175c00732d0000be2b00001d2a00008e280000f7
:10176c0010270000a025000041240000f0220000fa
:10177c00ae210000792000004e1f0000301e00003a
:10178c001e1d0000181c00001c1b00002b1a000062
:10179c00431900006518000090170000c3160000e4
:1017ac005516000096150000de1400002d140000e4
:1017bc0083130000e012000042120000ab11000085
:1017cc001a1100008f10000007100000840f000099
:1017dc00060f00008d0e0000180e0000a80d000072
:1017ec003c0d0000d40c00006f0c00000e0c00002f
:1017fc00b00b0000560b0000ff0a0000aa0a000004
:10180c00590a00000b0a0000bf090000760900000d
:10181c0030090000ec080000850800006a08000090
:10182c002c080000f0070000b70700007f0700003d
:10183c004907000015070000e3060000b30600008e
:10184c00830600005606000029060000ff05000074
:10185c00d5050000ad0500008605000061050000ff
:10186c003c05000019050000ce040000b004000087
:10187c00880400006a0400004c04000010270000db
:10188c00372700005e27000085270000ac270000ea
:10189c00d3270000fa270000212800004828000068
:1018ac006f28000096280000bd280000e4280000e6
:1018bc000b29000032290000592900008029000062
:1018cc00a7290000ce290000f42900001b2a0000e3
:1018dc00422a0000692a0000902a0000b72a000062
:1018ec00dd2a0000042b00002b2b0000522b0000e3
:1018fc00792b00009f2b0000c62b0000ed2b000065
:10190c00132c00003a2c0000612c0000882c0000e5
:10191c00ae2c0000d52c0000fb2c0000222d00006a
:10192c00492d00006f2d0000962d0000bc2d0000ed
:10193c00e32d00000a2e0000302e0000572e000070
:10194c007d2e0000a42e0000ca2e0000f12e0000f7
:10195c00172f00003e2f0000642f00008b2f00007b
:10196c00b12f0000d72f0000fe2f00002430000004
:10197c004b3000007130000097300000be3000008a
:10198c00e43000000a310000313100005731000012
:10199c007d310000a4310000ca310000f03100009c
:1019ac00163200003d320000633200008932000024
:1019bc00af320000d5320000fc32000022330000b0
:1019cc00000000007d000000640000000100000029
:1019dc00320000001400000002000000c8000000eb
:1019ec009600000005000000c80000000100000087
:1019fc0007000000000100000001000008000000ca
:101a0c00c8000000c800000008000000c80000006a
:101a1c00c800000009000000c8000000c800000059
:101a2c000a0000001900000014000000000400006f
:101a3c00a3000000000000000d0a00004e6500002d
:101a4c007720000049500000204100006464000031
:101a5c0072650000737300003a200000000d000056
:101a6c000a0000004f20000053650000726900005e
:101a7c0065730000204d0000420000000d0a0000bc
:101a8c0044480000435000002f5000006f770000c6
:101a9c006572000020650000766500006e74000021
:101aac00206f000063630000757200007265000017
:101abc0064000000804000002010000008040000ba
:101acc000201000001020000040800000a140000da
:101adc00285000000d730000656e0000640d0000be
:101aec00000000002c200000002000000d00000071
:0c1afc00000000000000000000000000de
:020000040000fa
:101b08000200fa00004f780042d1bf009e4f5000fb
:101b18001b00320042d1bf00e24f40000a003200f1
:101b280042d1bf000080fb007e00b9008000780031
:101b3800c080200000804000e19720000e000900ce
:101b480031187800e001b1001e40780042f1b7007a
:101b5800e0cfb3009e4f1000090032001e80fb004a
:101b68007e00b90080007800c0802000008040001e
:101b7800e19720000e000900b0187800e001b100dc
:101b88000080fa00000006000000fa00311421006d
:101b98009140780042d1bf0080cf5000240032002d
:101ba80043d1bf00e24f400016003200a091200050
:101bb8000001780043d1bf000080fb007e00b9001f
:101bc800fc004000c0802000008040009042780067
:101bd80043d1bf000080fb007e00b9008000780080
:101be800c0802000008040009000780080fd2f0019
:101bf800008040008402200013c0b30085407800b4
:101c08003b10070042d1bf0043f1b700a399200061
:101c180093417800f14b800080fd2f000081400047
:101c2800a09120008402200011c0b30030100700ea
:101c38000080fa00000006000c00fa00000c2100e9
:101c4800000f7800208a80000000e00007003a00ba
:101c5800f02c070080007800f07f20008080600072
:101c68000040200000804000208a88002094200046
:101c7800c20320008000eb008afd07000040eb0053
:101c8800204f98000040eb00304f98004a00370082
:101c98003e4890009aff07003e4890000080fb00f5
:101ca8006600b9008000780060ce280000804000ff
:101cb80090409000214798003e4890000080fb002b
:101cc8006600b9008080e80060ce280000804000ef
:101cd80090007800410798003e4890000080fb0083
:101ce8006600b900e400400060ce28000080400093
:101cf80090007800310798002e4090000080fb008b
:101d08000000e000010032002a0037001e007800c1
:101d180020079800ce0090003e0090000080400010
:101d28001e004000a1022000010f4000c0ff21005a
:101d38009e0f1000fdff3e002e4090009ae9b7006c
:101d48002e0090008002b000f04b8800f14b80001c
:101d58004e009000008040000000e800004c880021
:101d6800014c80003e00900000804000104c88002c
:101d7800d0002000a04c88009669a90082ff0700c7
:101d88003e4890000080fb006600b90080007800a3
:101d980060ce2800008040001040780041e9b7007c
:101da800400a07003e4890000040e800304f980085
:101db80001003700ffff37003e489000e84f500011
:101dc800b3ff36000080fa00000006001000fa0099
:101dd8001007980021079800624798004307980069
:101de800244f98000040eb00004f78007500370042
:101df8001e40780042ff0700a04c8000ed0f500005
:101e08006f003a0060ff07001194200091407800ad
:101e18002e48900080cf500069003a0080212000b1
:101e2800f04988006e4090000004e00008003a0085
:101e38004e009000504988009669a8004000200094
:101e4800a04c88004e009000c04c88005900370014
:101e5800218a8000f03f2000808f50000400360067
:101e6800218a800080382100808f500002003600cf
:101e780000402000208a8800208a8000504988007d
:101e88000000e800208a88004e0090004049880041
:101e98005e570700604c8800714c88009689a8003e
:101ea8006e4090000080fb00700798007e00900054
:101eb800e30f5000040032007e009000e40f500051
:101ec800180032003b0037000e80e80090009000b8
:101ed8000e80e80010007800808040004e009000de
:101ee800808040005049800000806800c04c880015
:101ef8001e009000ae00900080498800914988003b
:101f08000040eb0040e9b700d003200001002000aa
:101f1800d0488800e148880020002000a04c8800b4
:101f2800240037001e009000ae009000800078006a
:101f3800214090000081fb00314090000080fb00b0
:101f48004800dd0002007000000178001e009000cb
:101f5800ae0090009080fb00104090000080fb00d5
:101f68004800dd0001007000800041004e00900034
:101f7800808040005049800000806800c04c880084
:101f88001e009000ae0090008000780000932000b2
:101f98000900090031587800a000b100a100b10083
:101fa80050002000a04c880011c0b30020c0b3002e
:101fb800920607001e80fb006007980006003700a5
:101fc8001e4fe80080c0b3009e4f100088ff360007
:101fd800e00f2000600798006e0090000080fa0073
:101fe800000006000400fa00004f780080c0b3002b
:101ff8009e4f1000030036001000200010079800c4
:102008000d0037001e407800bdfe0700b04c800070
:1020180001002100010060000000e000040032001f
:102028009789a900100020001007980002003700c7
:102038000000eb00100798001e0090000080fa00d6
:10204800000006000400fa00004f780080c0b300ca
:102058009e4f1000030036008000eb001107980027
:10206800090037001e407800a5fe0700a04c80003c
:102078008000eb0011079800e70f500002003a00bb
:1020880010002000100798001e0090000080fa0041
:10209800000006000400fa00004f780080c0b3007a
:1020a8009e4f100045003e001e40780094fe070039
:1020b800404c8000504c8800a14c800011079800cb
:1020c8001e009000e50f5000190032009e0090009d
:1020d800e58f500008003e001e0090000000e00060
:1020e800130032009e0090000180e900e10f5000cb
:1020f8002e003e000e0037001e009000eb0f50002f
:102108001a0032009e009000eb8f500004003e0041
:102118001e009000e70f500024003e000600370024
:102128009e009000ee8f50001d0032001f00370007
:102138005c0907002100370011c0b30010c1b300cb
:102148002e060700604980000000e000040032000d
:10215800214c800030498000808f5000f6ff3a0003
:1021680080002000a04c88001400370011c0b30084
:1021780010c1b30021060700604980000000e0009c
:1021880004003200214c800030498000808f5000cc
:10219800f6ff3a00c0002000a04c88000700370076
:1021a800d0002000a04c8800040037008040eb00dd
:1021b80040c1b300110607003a0907000080fa0081
:1021c800000006000200fa00004f780080c0b3004b
:1021d8009e4f100005003e001e40780048fe070094
:1021e8009669a9001e407800aaff07000080fa003f
:1021f800000006000400fa00004f780080c0b30019
:102208009e4f1000030036008000eb001107980075
:102218000b0037001e40780039fe07005afe070001
:10222800008020000193200009000900315878003f
:102238004049800050408800008020001007980026
:102248001e0090000080fa00000006000200fa005c
:10225800004f780080c0b3009e4f10000a003e0077
:102268001e40780026fe070047fe0700214c80002c
:1022780030498000808f50000300320011c0b30045
:1022880000c1b300dd0507000080fa000000060069
:102298000600fa00204798002e409000e84f5000b2
:1022a800030036000000eb002007980020003700ec
:1022b8002e40900012fe0700a04c8000004f7800ce
:1022c80070c0b3009e4f100006003200b0c0b300cb
:1022d8009e4f1000030032000000eb00200798001a
:1022e80013003700214c8000304c8000808f500054
:1022f8000a003900014c8000f04b8000008150003a
:10230800314c8000204c80000080500000004100cb
:102318000000e9002007980005003700304c8000d5
:10232800214c8000010050000000e90020079800bf
:102338002e0090000080fa00000006000600fa0057
:1023480020479800314798002e409000e84f5000f1
:10235800030036000000eb00200798003f0037001c
:102368002e409000e6fd07002e409000c8ff0700b1
:10237800000f78001e00e00003003a000000eb00a8
:102388002007980035003700100020009e0f10002d
:1023980002003a002e409000acff0700b04c8000cd
:1023a80001102000010060000000e00009003a0070
:1023b800014c8000f04b8000008050000000d100ec
:1023c8009e0f5000030039002e4090009fff070029
:1023d8009709a8006300470000017800a199200030
:1023e80091407800204c80001400200013c0b300f6
:1023f8003f0e0700204c80000000e800204c8800b9
:10240800214c8000004c8000808f50000200390071
:10241800f04b8000204c8800100020009e0f100018
:1024280003003a002e40900088ff0700090037009b
:10243800b04c800001022000010060000000e000b4
:1024480004003a0096a9a800f65507006900400064
:10245800804c880010002000200798002e00900073
:102468000080fa00000006000e00fa00604798009d
:1024780041079800520798000000eb00000f780011
:102488006e409000e84f5000030036000000eb005b
:10249800600798005d0037006e40900098fd0700c7
:1024a8006e4090007aff0700100798001e00900009
:1024b8000000e00005003a006e40900063ff07004e
:1024c8000000eb0060079800500037001e009000e5
:1024d800200798009e0090005e009000808f5000ba
:1024e800020036005e00900020079800b04c800083
:1024f80001102000010060000000e0000a003a001e
:10250800014c8000f04b8000008050008000d1001a
:102518001e009000808f5000030039006e4090002c
:102528004aff07009709a800214c80002e00900060
:1025380080804000004c8000808f500014003900db
:10254800014c8000204c8000008f50004e0090000d
:1025580000017800a199200091407800204c80006b
:102568001e02780013c0b300e10d07009e0078003a
:102578004e00900001004000400798002e00900097
:102588001e00500020079800f04b8000204c880067
:102598004e00900000017800a19920009140780039
:1025a800204c80002e02900013c0b300d00d07000d
:1025b800214c80002e00900000804000204c8800b4
:1025c8009e0090005e009000808f500003003e0047
:1025d8006e4090001dff070009003700b04c8000d6
:1025e80001022000010060000000e00004003a0041
:1025f80096a9a8008b55070069004000804c880008
:102608002e0090001e004000600798006e009000a9
:102618000080fa00000006000400fa00004f78006d
:10262800110798001e00900025fb070000017800a4
:102638009e0090001e4078008bff07008000780005
:102648001e009000008040000080fa000000060094
:102658000800fa00404798004e409000e84f5000ac
:10266800030036000000eb00300798000c0037002c
:102678004e40900022fd0700014c8000f04b800086
:1026880000805000000fe9004e40900000ff070056
:10269800100798001e0090001e00100030079800d8
:1026a8003e0090000080fa00000006000200fa00d8
:1026b800004f78001e4078000b0007000000e00083
:1026c800070032001e4078000dfd0700404c8000d6
:1026d800504c880011c0b30000c1b300c704070004
:1026e8000080fa00000006000400fa00004f78009d
:1026f80080c0b3009e4f1000030036000000eb00be
:1027080010079800140037001e407800fcfc0700f2
:10271800414c8000504c8000808f500005003900eb
:10272800414c8000504c8000808050001107980078
:1027380009003700114c8000504c80000081500087
:10274800414c8000004c8000008050000000410097
:102758000000e800100798001e0090000080fa00b2
:10276800000006000800fa0020479800210798009a
:102778002e409000dcff0700000f78001e00e000ec
:1027880003003a000000eb003007980026003700ed
:102798002e409000dafc07002e0090000000e000b8
:1027a80008003200a199200091407800524c800026
:1027b8002e009000140020008141780011c0b30061
:1027c8004b0d0700504c80000000e800504c88007a
:1027d800514c8000104c8000808f50000200360061
:1027e800004c8000504c8800100020009e0f100004
:1027f80002003a009749a80009003700b04c800051
:1028080001022000010060000000e00004003a001e
:1028180096a9a800035507000003b000804c880063
:1028280010002000300798003e0090000080fa0059
:10283800000006000c00fa00404798003107980095
:10284800420798000000eb00000f78004e4090000f
:10285800a5ff0700100798001e0090000000e00088
:1028680003003a000000eb00500798004b003700c7
:102878004e409000a2fc0700ce0090001e00900081
:10288800808f5000020036001e009000400798001c
:10289800514c80004e00900080804000104c800019
:1028a800808f500018003600114c8000504c80007a
:1028b80000805000000fe8003e0090000000e0009b
:1028c8000c003200a199200091407800524c800001
:1028d8003e0090001e0278008141780011c0b300cc
:1028e800030d07009e0078003e00900001004000a4
:1028f800300798004e0090001e00500040079800d6
:10290800004c8000504c88003e0090000000e00021
:1029180008003200a199200091407800524c8000b4
:102928003e0090004e0290008141780011c0b30033
:10293800ef0c0700514c80004e00900000804000d2
:10294800504c88004e0090001e0040004007980040
:102958009e0090004e009000808050004e00900035
:10296800808f500002003e009749a80009003700f8
:10297800b04c800001022000010060000000e0006f
:1029880004003a0096a9a800a65407000003b00066
:10299800804c88004e009000500798005e00900020
:1029a8000080fa00000006000800fa00404798007e
:1029b8004e409000e84f5000030036000000eb0046
:1029c800300798000b0037004e4090004cfc070081
:1029d800114c8000004c8000008f50004e40900049
:1029e80041ff0700100798001e0090001e0010000d
:1029f800300798003e0090000080fa0000000600b2
:102a08001000fa00604798004107980052079800a4
:102a1800630798006e409000e84f500003003e00a6
:102a28005e0090000000e00003003a000000eb00a8
:102a380070079800450037006e40900030fc070092
:102a48006e40900028ff070010079800ee009000e5
:102a58005e009000808040001e009000808f500033
:102a6800040036001e009000ee00900001005000a7
:102a780050079800514c80006e0090000080400084
:102a880020079800114c80002e009000808f500085
:102a980007003100014c8000104c800080805000fd
:102aa8002e009000008040000000e90020079800f8
:102ab800114c80002e00900000805000000fe800ac
:102ac8005e0090009e0f50000a003e009ac9bf00a9
:102ad800ce009000810278005e029000804178006c
:102ae8002e01900011c0b30005007800800c07008b
:102af80014003700a1992000914078004e00900002
:102b08001e027800814178002e01900011c0b300a8
:102b1800770c07005e0090009e005000a2992000ec
:102b280012417800054c80004e0090001e004000c5
:102b380001027800824178000501780011c0b300d5
:102b48006b0c07005e009000700798007e009000f4
:102b58000080fa00000006000600fa0020479800ee
:102b680021079800ae019000120020008e00780026
:102b78002e409000a2ff07001e4078000080fb0056
:102b88000080fa00000006004000fa002077980054
:102b9800211f9800321f9800431f9800541f980067
:102ba800651f98002e709000e84f500003003e000b
:102bb8003e1890000000e00003003a000000eb001f
:102bc800701f9800320137002e709000ccfb070070
:102bd8002e709000c4fe0700800078004e18900008
:102be8000080500070079800fe0090003e1890008a
:102bf800808f5000030031008080eb00711f980027
:102c0800230137005e1890000000e0000600320043
:102c1800fe0090005e189000808f50000200360081
:102c28005e18900070079800514c80004e18900074
:102c38000080400050079800114c80005e00900012
:102c4800808f500007003100014c8000104c80003c
:102c5800808050005e009000008040000000e90085
:102c680050079800de009000010f9800114c80007a
:102c78005e009000008050000000e80060079800a7
:102c88004e18900050079800be1890004107980011
:102c98002e189000300798002e1890009040780069
:102ca800314798002e1890000000e800201f980077
:102cb8000000eb00000f78006e1890000000e000a4
:102cc8000c003200be40900000c6b30080cf500018
:102cd80008003600be409000a0c7b30080cf500067
:102ce80004003e003e40900001ceb3000140400089
:102cf8003047980000c2b300204798002e4090004b
:102d08008080fb006e009000808f5000020036002b
:102d18006e009000204798002e4090008080fb00b5
:102d28007e009000808f5000020036007e009000e8
:102d3800204798002e4090008080fb00a299200038
:102d48001241780072004700010278008241780041
:102d58000e09900011c0b300e50b07002e4090004b
:102d68008080fb000e08900001004000000f9800d2
:102d78002e4090008080fb006e0090000100500003
:102d8800600798006e0090000000e00004003a0020
:102d9800004c8000000f98000080eb00600798004e
:102da8006e1890000000e0006f0032000040eb0059
:102db80040479800670037004e4090008080fb0035
:102dc80072004700008040009040780000c6b300c1
:102dd80080cf5000160036004e4090008080fb00e7
:102de800720047000080400090407800a0c7b30000
:102df80080cf50000e003e004e4090000081fb0046
:102e08004e4090008080fb00720047000080400028
:102e1800104078008040780000ceb30000c0400029
:102e280080407800720047000000410001487800a7
:102e38004e4090008080fb007200470000804000f8
:102e4800904078003e40900080cf500024003a0027
:102e58003e1890000000e900301f98003e189000ce
:102e68000000e00009003a00de0090004e009000eb
:102e7800808050004e4090000080fb0000804000a1
:102e88000000e800701f9800810037002e1890009d
:102e980090407800314798002e1890000000e80014
:102ea800201f980010002000000f7800be409000fe
:102eb80000c6b30080cf500023003600be4090000b
:102ec800a0c7b30080cf50001f003e003e409000d6
:102ed80001ceb30001404000304798001a00370087
:102ee8004e009000301f98001e00e00016003200cf
:102ef800be009000211f98002e1890009040780086
:102f0800314798002e1890000000e800201f980014
:102f1800be40900000c6b30080cf500008003600c5
:102f2800be409000a0c7b30080cf500004003e0010
:102f38003e40900001ceb300014040003047980069
:102f48000000eb00000f78004e4090000040e800c1
:102f580040479800ce4090002e40900080cf50000f
:102f680095ff3900380037000040eb0040479800d3
:102f7800310037004e4090008080fb00720047000f
:102f880000804000904078003e40900080cf500084
:102f980018003a003e1890000000e900301f980021
:102fa8003e1890000000e00009003a00de009000a2
:102fb8004e009000808050004e4090000080fb0042
:102fc800008040000000e800701f980030003700c3
:102fd8002e18900090407800314798002e189000e5
:102fe8000000e800201f980010002000000f780063
:102ff8000e0037004e009000301f98001e00e000c1
:103008000a003200be009000211f98002e18900080
:1030180090407800314798002e1890000000e80092
:10302800201f98000000eb00000f78004e40900031
:103038000040e80040479800ce4090002e409000a5
:1030480080cf5000cbff39002e4090008080fb00dd
:103058007e0090000100500070079800fe0090006c
:103068003e189000808f5000030031000080eb0074
:10307800701f9800060037002e4090008080fb00eb
:103088005e009000010040005007980019ff3700cb
:103098007e1890000080fa00000006000800fa0080
:1030a800004f7800114798001207980023079800ee
:1030b800340798008e00e800be0290002e029000af
:1030c8009e019000120020001e407800aefe07000e
:1030d8000080fa00000006001000fa00881f78003f
:1030e8000040eb00004f9800b40137000e489000f4
:1030f80083fa07000040eb00204798000000eb002f
:10310800300798000000eb0020079800b14c8000c1
:1031180000202000008060000000e00005003a0068
:10312800b04c800001402000010060000000e00079
:103138000a003200cc0b07000000e0000700320054
:1031480000c1b30020479800b04c80004a00de0060
:10315800614060000080fb0030079800b04c8000a0
:1031680001022000010060000000e00007003200ba
:10317800884c8000ab520700000054000000e000bb
:1031880002003c0000c1b30020479800b04c80000a
:1031980001042000010060000000e0000700320088
:1031a800984c80009f520700000054000000e00087
:1031b80002003c0000c1b30020479800a04c8000ea
:1031c800eb0f500009003a00984c80009552070018
:1031d800000054000000e00004003c0010c1b300ef
:1031e80020479800c0002000a04c8800a04c800018
:1031f800e40f500056003a000000eb00000f780082
:10320800500037001e0078007400b900f00040003c
:103218002094200000804000100078000000e000aa
:103228004b0032001e0078007400b900f000400026
:10323800209420000080400090007800c04c80005e
:10324800808f50003e003a004ffa07001e007800b9
:103258007400b900800078002094200000804000ad
:103268000193200009000900b0587800a000b100bf
:103278001e0078007400b900ea0040002094200085
:103288000080400010007800404988001e00780047
:103298007400b900ec004000209420000080400039
:1032a8001000be0061004000e0804800104988001e
:1032b8002149880091498000804980008080400031
:1032c80040498000808040005049800000806800ac
:1032d800c04c880020c1b30020479800600020003f
:1032e800a04c8800220020001e0051007400b90084
:1032f800000178001e0078007400b9008000780092
:103308006095200000804000800278001e00780050
:103318007400b900800078002094200000804000ec
:103328000202780013c0b3000501780011c0b30091
:103338006f0a07000000eb00d04b8800040037003c
:103348001e0fe800230020009e8f1100adff3600fd
:103358002e4090000004e0000a0032000040eb001c
:10336800204f98003e0090000000e00002003a0064
:1033780011c0b300214f9800ae4890002e40900035
:103388009e010700b04c8000700060000000e00063
:103398002a003a00a04c8000e70f500004013a00d0
:1033a8001a5207000001be00604c8000714c80007a
:1033b8000000510081805900e00f5000e08f580054
:1033c800fb003500b04c800067006000e60f50003d
:1033d8000e003a00b04c80004300de0061406000ff
:1033e800204798000e4890002afb07000e489000de
:1033f80028fb07002e4090000004e000ec003a0093
:10340800e0002000a04c8800e9003700def9070042
:1034180021c0b30000c1b30078010700fb510700c9
:103428008296280093002000000041008180490016
:10343800604c8800714c8800dd003700f3510700ac
:103448000001be00604c8000714c800000005100fb
:1034580081805900e00f5000e08f5800d4003500fb
:10346800c9f90700a04c80006101b800e0ff2f00f7
:10347800f1ff2f0002014000838148006207980095
:1034880073079800a0002000010020006e01900042
:10349800fe019000800f5100818f590092003e007c
:1034a8006e009000fe009000006001000a003700e6
:1034b800100037008c003700310037003e0037001d
:1034c800510037005d003700690037006d00370094
:1034d8004d00370078003700d2510700804c880033
:1034e80000932000ae37070030002000a04c880071
:1034f8007d00370041932000009320000e3807001c
:103508000000e00017003a00c6510700800078006c
:10351800804c800000815000d0488000e148800045
:10352800800f51007000360040c9bf00e54f5000c1
:1035380009003e0040c9bf000040e80040e9b7006c
:10354800d0488000e14880000000400081804800a9
:10355800d0488800e148880020002000a04c88005e
:103568006100370020c0b300204798000000eb003e
:103578003007980050002000a04c88005a003700ff
:1035880020c0b300204798001000200030079800a2
:1035980040c9bf00e34f50005300360040c0b3009d
:1035a80040e9b70000242400f1002000d04888003a
:1035b800e14888004c00370040c9bf00e14f500087
:1035c80005003e0020c1b3002047980010002000ed
:1035d8003007980044003700b04c80006800600055
:1035e8000000e0000500320040c1b3002047980009
:1035f80010002000200798003b00370020c0b300cf
:10360800204798003800370040c9bf00e44f5000f9
:1036180005003e0000c1b3002047980010002000bc
:10362800300798003000370080002000a04c880048
:1036380010c1b300204798002b00370040c9bf00d5
:10364800e44f500005003e0010c1b3002047980029
:1036580010002000300798002300370040c1b30055
:103668002047980010002000200798001e0037000f
:1036780040c1b300204798001000200020079800a0
:103688001900370040c9bf00e44f500005003e0054
:1036980000c1b300204798001000200030079800b0
:1036a8001100370040c1b3002047980010002000e7
:1036b800200798000c00370040c9bf00e44f5000b5
:1036c80005003e0010c1b3002047980010002000fc
:1036d800300798000400370040c1b3002047980025
:1036e80010002000200798002e4090000004e00001
:1036f8002b0032003e0090000000e0002500320060
:1037080040c9bf000040e80040e9b700d048800049
:10371800e14880000000400081804800d0488800cf
:10372800e148880031498000304c8000008f50000b
:1037380031498000304c8000808f500004003100f7
:10374800004c8000f14b8000010050001e0f40002b
:10375800f2488000034980001e0078000100200024
:103768000000510081805900f04888000149880014
:10377800604980001e00400060498800304c80008d
:10378800304988008040eb002e4090009b000700e5
:103798000300370011c0b3002e40900097000700c7
:1037a8002e0090000000e00001003200bd03070079
:1037b8000e4890000040e800004f98000e48900026
:1037c800e84f500049fe36000000eb00000f78007b
:1037d8002c0037001e0078007400b900f00040008b
:1037e8002094200000804000100078000000e000d5
:1037f800270032000b510700000178001e007800f6
:103808007400b900f20040002094200000804000bd
:103818001000780080005100c02d2000808f5000db
:1038280017003600210020001e8050007400b900e7
:10383800000178001e0078007400b900800078004c
:103848006095200000804000800278001e0078000b
:103858007400b900800078002094200000804000a7
:103868000202780013c0b3000501780011c0b3004c
:103878001f0907000000eb00d04b88001e0fe9006d
:103888001e0fe800220020009e0f1100d1ff360015
:103898004f0478000080fa00000006002e00fa00ad
:1038a800301798004117980052179800be109000e2
:1038b8001182fb00114090000080fb004800dd00f1
:1038c8000400700000017800214090000082fb0095
:1038d800314090000080fb004800dd0004007000cb
:1038e80080017800760047000288be004e109000e4
:1038f8001000be00760147002001980031019800b1
:10390800f60047000040eb0080489800f6004700aa
:1039180060c0b3009048980076004700de10900021
:10392800510098007600470050009000e5270700f6
:103938008000780076004700510098007600470024
:10394800c10020001b2807000080ea00101798001b
:103958005e109000c70b0700201798009e1090007b
:103968002e109000808f500004003200ca09070012
:1039780010002000601798001d0037000000eb00c1
:10398800394c07000e80e80041012000110d0700a6
:103998000e80e800130307000e80e8006000900026
:1039a8004400de006f4060004200dd00744f5000ac
:1039b8009e80fb005e1090000100500074005000d3
:1039c800501798000e80e800be109000ec01070028
:1039d8000000e000030032000e80e800de109000d6
:1039e800c1030700ac090700110020006117980007
:1039f8006e1090000080fa00000006002a00fa000d
:103a0800006f9800116f98005ff807000e6890002b
:103a18000080fb00610060000004e0000500320047
:103a28009769a8000e689000e1cfb30001406000dc
:103a3800006f980096a9a90096c9a90096e9a9005f
:103a48009729a9009749a9009709a900860907009d
:103a58000000e000fdff32000e6890000080fb00cf
:103a6800660060000000e000030032000000eb0088
:103a7800000f78007d003700214c8000304980001d
:103a8800808f500003003a000000eb00000f780020
:103a980068003700214c800030498000808f50003a
:103aa80019003600204c800031498000010f500079
:103ab800604980009e0f500002003100604980007c
:103ac800000f7800f04980009e0f5000030031007d
:103ad800f1498000010f78009749a8009ac9bf00f2
:103ae800324980001e027800804178008040eb0057
:103af80050b020007e080700304980001e004000ba
:103b0800304988004b003700014c80003049800064
:103b1800808050007c004700510098007c004700de
:103b2800d0009000204c800080804000f04b800046
:103b3800008f5000604980009e0f50000200310045
:103b480060498000000f7800f04980009e0f500007
:103b580003003100f1498000010f78009749a8005f
:103b68007c004700500090009e0f50000300360074
:103b78007c0047009e007800510098007c004700b8
:103b880050009000a19920009140780032498000af
:103b980000027800814178008040eb0050b020009e
:103ba800530807007c004700500090009e0010005a
:103bb8007c004700510098007c00470050009000ae
:103bc8000000e0000e0032007c0047005001900029
:103bd800a399200093417800f54b8000014c8000a8
:103be800304980008080500050b0200000804000a4
:103bf80002027800050178008040eb003c080700cd
:103c0800304980001e00400030498800314980005a
:103c1800004c8000808f5000060039003249800037
:103c2800014c8000f04b80000080500000005100e3
:103c380030498800b04c80000180200001006000fd
:103c48000000e00009003200604980009e0f50002b
:103c580006003200f04980009e0f50000300320039
:103c68000e6890000004a000006f98001e00e0009d
:103c780005003a000e6890000080fb0063006000b9
:103c88000000e0001c003200604980001e00500067
:103c9800604988001e00e000030032000e689000b2
:103ca8000034a000006f98001e6890000080fb00a0
:103cb800610060000004e000060032000040eb00f4
:103cc80040e9b70040422f0001002000d04888009a
:103cd800e1488800cd4f0700d2488000e3488000c3
:103ce8000000410081804900604c8800714c8800c8
:103cf8009689a800360037001e6890000080fb00f7
:103d08000000d100610060000004e00014003200ef
:103d1800b04c8000674060000040e80067406000e9
:103d28000080fb0067016000b14c800080ff2f001d
:103d38000080600002007000b04c8800f0488000ed
:103d48000149800061005000e0805800f048880078
:103d58000149880010002000000f78001c0037007f
:103d6800b04c8000700060000000e00018003200d5
:103d78001e6890000080fb00610060000000e00009
:103d88000c003a0040c9bf000004e00009003200fe
:103d980040c9bf000040e90040e9b700d0488000b2
:103da800e14880008100d1000080d300d04888001d
:103db800e1488800954f0700d2488000e34880001a
:103dc8000000410081804900604c8800714c8800e7
:103dd800514980006400470001087800414980008b
:103de8006400470011009800f048800001498000f5
:103df80064014700200198003101980010498000b3
:103e08002149800064014700400198005101980051
:103e180064014700e2009000f0ff2300008060008a
:103e28006001980064014700e200900000ff2f0045
:103e38000080600060019800640047008e68900070
:103e480051489800e40047000000eb0090089800f3
:103e5800f2488000034980001e007800010020001d
:103e68000200400083804800f0488800014988002b
:103e78000e6890000080fb000000d1006100600027
:103e88000004e0001e0032000e6890000080fb0075
:103e98004400de00610060000000e00004003a0019
:103ea800640147006000b800400198005101980083
:103eb800e0498000620060000000e0000900320074
:103ec80064004700b000900020009000610050009e
:103ed800e0805800640147002001980031019800f3
:103ee80007003700f0488000014980006100400069
:103ef800e0804800f0488800014988003c29a80073
:103f08000e6890000080fb00610060000004e00083
:103f1800010032003c09a800414c8000504c800050
:103f2800808f50000a003900114c8000004c80003e
:103f380000815000414c8000504c800000805000af
:103f480080005100640047007100980006003700a7
:103f5800514c8000404c8000008050008000e900f7
:103f68006400470071009800650807001007980072
:103f78009e009000f0032000808f500003003e0058
:103f88000000eb0010079800040037001e009000a6
:103f980001fc2f0001004000100798006400470052
:103fa800f00090001e009000808f50000300360043
:103fb8009e0090006400470071009800640047006c
:103fc800880107001e007800740f40006401470054
:103fd800e2009000f0f02f00008060000105200052
:103fe80001007000600198000e6890000080fb00de
:103ff8000000d100610060000004e00017003200fa
:104008009e007800648f400020c0b300005f9800d5
:1040180040c0b300105f980020802100500f980026
:1040280064004700600090004400de006f406000bc
:104038000040e8006f406000e40147000080fb009a
:104048006f0060004401dd00e3009000f0f02f00f5
:104058000080600002007000e001980062cfbf009d
:104068008080fb0063cfbf000080fb004800dd00bc
:10407800010070000001780064cfbf008080fb0061
:1040880065cfbf000080fb004800dd000100700024
:10409800800178007c0047000288be0080498000cb
:1040a800914980007c014700200198003101980067
:1040b800fc0047000040eb0080489800fc004700e7
:1040c80060c0b300904898007c0047009e007800cc
:1040d800510098007c00470050009000f925070027
:1040e800800078007c004700510098007c00470061
:1040f800c10020002f2607008080ea0064004700e6
:1041080001089800d0ad2000800907001e01780042
:1041180061c0b30000932000074a0700640047000d
:1041280041012000b40b07000e6890000080fb00de
:104138000000d100610060000004e00003003200cc
:104148007800470041002000ab0b070010af2000ab
:10415800850907001e007800c609070010079800a7
:1041680010b02000690907000e80e8002100200037
:10417800a10b0700c00807000080fa000000060035
:104188000c00fa00881f7800300798004107980053
:104198003e009000100090000000e00003003a008c
:1041a8000000eb00500798000a013700e0cfb30089
:1041b80040479800ce009000214090000081fb000d
:1041c800314090000080fb004800dd0002007000d4
:1041d800000178004e0090009080fb001040900095
:1041e8000080fb004800dd000100700080004100f5
:1041f8003e00900010007800808040003e00900053
:104208001000900000806800100798000040eb0044
:1042180050479800380037005e40900038f6070095
:10422800a04c8000ed0f500030003200a04c800000
:10423800e40f500008003a00c04c8000be00900017
:1042480091009000810f500028003a00de40900055
:104258004147980025003700c14c80001e0090009f
:10426800808f500021003a0047f607003e0090007a
:104278009000900050498000808f50001b003a0049
:104288003e0090009000780040498000808f5000e8
:1042980016003a00ce0090001182fb0011409000f9
:1042a8000080fb004800dd00040070000001780079
:1042b800214090000082fb00314090000080fb000c
:1042c8004800dd000400700080017800804980000b
:1042d80091498000800f5100818f590003003a00f6
:1042e8001000200050079800ba0037005e40900088
:1042f8000040e800504798005e409000e84f5000aa
:10430800c5ff36004e409000e24f400018003200d2
:104318004e409000faf507001bf607004e4090004b
:10432800e24f4000120032009e009000c14c88000d
:104338004e0090000193200009000900b058780051
:10434800a000b1003e0090001000780040498800ad
:104358003e0090001000900050498800f04b80000b
:104368003049880010002000500798009900370055
:104378003e009000e00090000020200000806000d7
:104388000000e00003003a008000eb0051079800ad
:1043980090003700d04b80000000e000030032009e
:1043a8000000eb00500798008a0037000000eb007f
:1043b800000f78003f0037001e0078007400b90035
:1043c800f000400020942000008040001000780099
:1043d8000000e0003a0032001e0078007400b900c6
:1043e800f0004000209420000080400090007800f9
:1043f8003e00900010009000808f50002c003a0082
:104408001e0078007400b900ea00400020942000e3
:1044180000804000900078003e0090001000780076
:10442800808f500022003a001e0078007400b90006
:104438008000780020942000008040001003be0017
:10444800ce0090001182fb00114090000080fb001c
:104458004800dd0004007000000178002140900051
:104468000082fb00314090000080fb004800dd0026
:104478000400700080017800820f5300838f5b0076
:104488000b003a001e047800e64d07000001780092
:104498007440b900f20040002094200000804000e1
:1044a800020878008000eb005107980049003700a7
:1044b8001e0fe800200020009e0f1000beff3600ef
:1044c8000040eb00504798003d0037005e409000e8
:1044d8008bf50700b04c8000680060000000e00029
:1044e80034003200a8f5070050498000be00900053
:1044f80091009000810f50002e003a001e007800b5
:104508007400b9008000780020942000808040006a
:104518004e00900009000900b0587800a100b100d1
:10452800a000b1009e0078003e00900010017800c5
:104538007408b900ea004000209420000080400080
:10454800020878009e0078003e009000200190004c
:10455800b00190007408b900ec00400020942000dd
:10456800008040000288be009e0078003e00900057
:10457800100190007408b900f00040002094200059
:1045880000804000020878001e047800a54d07004e
:10459800000178007440b900f20040002094200027
:1045a80000804000020878008000eb005107980066
:1045b800080037005e4090000040e800504798002f
:1045c8005e409000e84f5000c0ff36000000eb004e
:1045d800500798005e0090004f0478000080fa00b1
:1045e800000006000200fa00000f78001e007800a4
:1045f80010007800b3240700800078001e007800bf
:10460800010878001e00780010009000ad24070013
:10461800800078001e007800110098001e007800c5
:10462800b000900020009000b32407001e0178001d
:1046380020019800310198001e007800d0009000f9
:1046480040009000ac2407001e017800400198004b
:10465800510198001e00780070009000992407000e
:10466800800078001e007800710098001e00780015
:104678000008900093240700800078001e0078004e
:10468800010898001e007800100890008d2407008b
:10469800800078001e007800110898000080fa0059
:1046a800000006000200fa00881f780036f50700af
:1046b80050498000c04c8800f04b8000204c880096
:1046c800f04b8000304c8800004c8000404c880043
:1046d800004c8000504c8800b04c8000680060009e
:1046e8000000e0000300320040002000000f7800c6
:1046f80002003700d0002000000f78001e0078006c
:10470800a04c88009609a9009629a9009649a900f5
:104718009689a90096a9a90096c9a90096e9a900b1
:104728009709a9009729a9009749a9009769a9009d
:104738009789a8003c09a9003c29a9003c69a9005f
:104748003c89a900f04b800030498800e89120009e
:10475800f9210700000c7800e8912000f6210700f5
:10476800100498000080eb00d04988001000200059
:10477800604988004f0478000080fa0000000600b5
:104788000600fa00881f7800c0002000b64807001d
:1047980077090700104798001e4090008080fb00b2
:1047a800000f2000008060004280de00744050004e
:1047b800104798001e4090000004e00003003a00f3
:1047c8008021200020079800430037007100200056
:1047d8000000eb007f090700370037006409070075
:1047e800004f78001e04e0003900320010c0b3000a
:1047f8009e4f10003000320020c0b3009e4f1000c2
:104808001f003a001e409000e24f50003000360072
:104818000000eb001007980055090700004f7800ca
:1048280040c0b3009e4f100007003a000e80e80019
:104838000004e8004e090700004c78000e84e800e8
:104848004b090700004c78009e0090007021200062
:10485800808f50001e0036009e009000405b2000b4
:10486800808f500003003600405b2000200798002e
:10487800190037001e009000200798001600370026
:104888001e409000e14f5000110036003809070023
:10489800004f78001e4090009e4f50000c003900d9
:1048a8009e80fb000000eb004a0907001e409000b4
:1048b8001e405000104798001e4090000040e9003c
:1048c800104798001e409000e14f4000c3ff3a0097
:1048d80080212000200798002e0090004f047800c7
:1048e8000080fa00000006002800fa00700f980007
:1048f800011798007e089000d0489000614f9800fa
:104908007e08900040019000d00190005207980066
:10491800630798007e08900020019000b001900085
:1049280032079800430798009609a9009629a9001c
:104938009649a900b04c8000700060000000e000bb
:1049480007003a00b14c0700829628009300200027
:104958000000410081804900604c8800714c88004b
:10496800a34c8000331798003e109000e40f5000cd
:1049780004003200be109000e58f50002e00320077
:104988007c0037006e4890000080fb004200de008b
:10499800610060000004e0000200320041ff0700ef
:1049a800100437006e4890000080fb004400de00d1
:1049b800610060000004e000090032005e01900020
:1049c800ee019000f2488800034988008040eb001f
:1049d80040c0b30009fc070032ff0700010437009c
:1049e8006e4890000080fb000000d100610060006c
:1049f8000004e0000e0032003e009000ce0090005f
:104a080061004000e0804800104988002149880082
:104a18005bff0700f049880011c0b30020c1b30054
:104a2800f6fb070060002000a04c8800ed0337006b
:104a38001cff0700eb0337006e4890000080fb0066
:104a48004200de00610060000004e000e5033a0077
:104a58006e4890000080fb004400de0061006000aa
:104a68000004e00017003200f2488000034980008b
:104a78005e009000ee009000800f5100818f590079
:104a880010003200f048800001498000300798008b
:104a9800410798005e019000ee019000f2488800fe
:104aa8000349880011c0b30040c0b300d3fb07001e
:104ab8003e009000ce009000f04888000149880030
:104ac800c80337006e4890000080fb000000d1004a
:104ad800610060000004e000c20332003e00900064
:104ae800ce00900061004000e08048001049880036
:104af800214988007e089000700090006049880075
:104b08001fff0700f04988006e4890000080fb00f6
:104b18004400de00610060000004e0000f00320085
:104b280011c0b30000c1b300b4fb0700700020003f
:104b3800a04c8800354c07000001be008096280074
:104b4800910020000200400083804800604c8800eb
:104b5800714c88009689a900a203370011c0b300e0
:104b680020c1b300a5fb070060002000a04c88000e
:104b78009c0337008e109000210798006e48900023
:104b88000080fb00610060000004e00003003200c8
:104b98002e0090000000e800200798006e48900062
:104ba8000080fb000000d100610060000004e0000c
:104bb800030032002e0090000000e8002007980053
:104bc800414c8000504c8000808f50000900390013
:104bd800114c8000004c800000815000414c800046
:104be800504c80000080500000005100000f9800d9
:104bf80005003700514c8000404c80000080500078
:104c08000000e900000f9800124980002349800045
:104c18003e009000ce0090000200500083805800b3
:104c2800200f9800310f98002e099000120f98005d
:104c38000000eb00100798002e0090000000e00034
:104c4800350032000e0890000000e00048003200f5
:104c58002e089000be089000e00f5000e08f58002a
:104c68000a0035000e0890006101b8002e08900077
:104c7800be089000800f5100818f59000300360054
:104c88001000200010079800140037002e00900034
:104c98006101b8002e089000be0890000200400094
:104ca80083804800e00f5000e08f58000b0034006c
:104cb8008e0890002e009000008050006101b9001d
:104cc8002e089000be089000800f5100818f590077
:104cd8000200350010002000100798000e08900010
:104ce8006101b8002e089000be089000800f5100a6
:104cf800818f59001e0034001e089000ae009000fd
:104d0800010040000000e0001900340010002000fd
:104d180010079800160037002e089000be08900073
:104d2800e00f5000e08f580003003a001000200008
:104d3800100798000e0037002e089000be0890005b
:104d4800e00f5000e08f5800090035000e08900071
:104d58006101b8002e089000be089000800f510035
:104d6800818f5900020036001000200010079800bb
:104d78001e0090000000e0000a003a006e48900013
:104d88000080fb004200de00610060000000e000df
:104d980014033a0011c0b30000c1b30017fb0700a9
:104da800100337006e4890000080fb00660060002a
:104db8000000e000020032003afe07000903370055
:104dc8006e4890000080fb004400de006100600037
:104dd8000000e00003033200a34c80002317980072
:104de8002e109000eb0f500007003e00ae10900010
:104df800e78f5000210031002e119000e60f51007e
:104e08000500320065013700ae119000ec8f5100ab
:104e18005701320061013700f248800003498000e1
:104e28005e009000ee009000800f5100818f5900c5
:104e380010003200f04880000149800030079800d7
:104e4800410798005e019000ee019000f24888004a
:104e58000349880011c0b30040c0b300e7fa070057
:104e68003e009000ce009000f0488800014988007c
:104e7800dc02370070002000a04c8800214c800024
:104e88003049800000805000400f98004e08900084
:104e98000000e00006003d00014c8000f04b80005f
:104ea800808050004e08900001004000400f98009c
:104eb800f2488000034980004e089000010020005d
:104ec8000200400083804800500f9800610f98004e
:104ed8005e019000ee0190005e089000ee089000e0
:104ee8000000510081805900500f9800610f980010
:104ef8005e089000ee089000e00f5000e08f580028
:104f080015003400e0498000610060000000e00006
:104f1800070032005e099000ee09900010002000a2
:104f280001002000800f5100818f590004003200d9
:104f38008040eb0000c1b300b0fa0700a9023700b7
:104f48005e009000ee00900061005000e080580084
:104f58005007980061079800f248800003498000d4
:104f680031498000304c800000805000cf80de0046
:104f78000000510081805900500f9800610f98007f
:104f880031498000304c8000808f50000a00310089
:104f9800014c8000f04b8000008050006101b80097
:104fa8005e089000ee0890000200500083805800d0
:104fb800500f9800610f98005e019000ee0190007c
:104fc8005e089000ee0890000000510081805900b2
:104fd800500f9800610f98005e089000ee0890004e
:104fe800e00f5000e08f580052003400014c800060
:104ff800f04b8000008050006101b8005e0890000e
:10500800ee089000800f5100818f59004900390047
:105018003c69a9003c89a9009709a900314c800086
:10502800410f9800314c80005e08900000804000dd
:10503800304c8800314980004e089000808f500025
:105048001100390031498000304c8000808f5000b9
:1050580023003100f248800003498000314c800071
:10506800304980000080500001002000020040000c
:1050780083804800f048880001498800304c80004f
:10508800304988001600370032498000014c800002
:10509800f04b80000080500000004100400f980055
:1050a800314c80004e089000808f50000c00360074
:1050b800f248800003498000314c80004e0890007f
:1050c800008050000100200002004000838048005a
:1050d800f048880001498800304c80003049880039
:1050e800314c8000004c8000808f50000600390051
:1050f800324c8000014c8000f04b80000080500052
:1051080000005100304c880031498000004c80007c
:10511800808f50003000390032498000014c8000f7
:10512800f04b80000080500000005100304988009a
:1051380029003700314c800030498000808f5000b2
:1051480025003200e0498000680060000000e000af
:1051580020003200e0498000700060000000e0009c
:105168001b003200f248800003498000314980006a
:10517800304c800000805000cf80de0000005100dd
:1051880081805900f0488800014988003149800031
:10519800304c8000808f50000a003100f2488000b7
:1051a80003498000014c8000f04b800000805000d3
:1051b800cf80de000000510081805900f04888004f
:1051c80001498800304c8000304988009749a80080
:1051d8003c89a8003c69a800314c8000204c800024
:1051e800808f50001b003a00b04c800001802000e6
:1051f800010060000000e00009003a00834a07004f
:105208008296280093002000000041008180490018
:10521800604c8800714c88009689a9000d00370001
:10522800f2488000034980005e009000ee00900084
:10523800800f5100818f590006003a00e049800034
:10524800610060000000e000020032009689a900b9
:105258009769a9007e08900070019000f0488000ce
:1052680001498000800078005e00900000805000b6
:10527800000f5100604980000000e00003003a0080
:105288001e00e000010032009729a8001e017800e6
:1052980062498800a04c8000e80f500017003a00cf
:1052a800f2488000034980005e009000ee00900004
:1052b800800f5100818f590038003a00e049800082
:1052c800610060000000e000340032004f4a07002f
:1052d8000001be00404b2c004100200002004000ad
:1052e80083804800604c8800714c88009689a8002b
:1052f80090002000a04c880028003700a04c8000b7
:10530800e90f50000e003a006e4890000080fb0044
:10531800610060000000e00020003a005e0090009c
:10532800ee009000f0488800014988008040eb00ba
:1053380040c1b300b1f90700dafc0700a901370042
:10534800a04c8000ea0f500014003a00f248800098
:10535800034980005e009000ee009000800f51002d
:10536800818f59009f013a00cefc07009d0137004c
:10537800f04880000149800061014000e081480058
:105388005e009000ee009000800f5100818f590060
:1053980094013a00c3fc0700920137006e48900060
:1053a8000080fb004500de00610060000004e000b2
:1053b8008c013a00a04c8000eb0f500089013200ac
:1053c800a04c8000ea0f500086013200a04c8000fb
:1053d800ec0f5000830132000e1090000000e00036
:1053e800160132001e0890000000e0007a003c0020
:1053f8007e089000600090004400de006f4060006e
:105408000080fb004200dd00800078001e0890004c
:1054180000805000944507008e1090001e089000f0
:1054280000804000001798008e1090000e08900031
:10543800808f5000020036008e08900001179800f7
:1054480012498000234980000e10900001002000be
:1054580002004000838048001049880021498800e4
:10546800414c80000e10900080804000104c80005d
:10547800808f50001e003600114c8000404c800088
:10548800008050000000e800400f9800a19920001b
:1054980091407800404c80004e0a90008041eb001b
:1054a8000081eb00120207008e1090004e08900059
:1054b80000805000a199200091407800054c8000a0
:1054c800000278008041eb000081eb0005007800c5
:1054d80007020700024c80008e1090004e089000d2
:1054e8000080500000004100404c88000b0037004d
:1054f800a199200091407800404c80000e12900045
:105508008041eb000081eb00f9010700414c80006d
:105518000e10900000804000404c8800d049800068
:10552800e10f4000c5003200d049800080007800bb
:105538000e10900000805000d0498800714980000a
:10554800d049800000804000400f98004e0890002d
:105558000000e00003003d000080eb00d049880017
:10556800b6003700d04980000000e000b3003c00de
:1055780012498000234980004e0890000100200055
:1055880002004000838048001049880021498800b3
:10559800414c80004e08900000804000404c88003c
:1055a800414c8000104c8000808f5000070036006e
:1055b800424c8000014c8000104c8000008050005c
:1055c800000041000000e900404c88000080eb002a
:1055d800d0498800990037001e0890000000e000bc
:1055e800960034008e1090001e08900080804000c5
:1055f8000e089000808f5000040036000e089000be
:105608009e08900001005000001798007e08900046
:10561800600090004400de006f4060000080fb00e6
:105628004200dd0010450700414c80001e08900034
:10563800808040000e10900080804000104c800058
:10564800808f500030003600114c8000404c8000a4
:10565800808050001e089000008050000000e80084
:10566800400f98004e0890000000e000160035003a
:10567800a599200095427800414c80001e089000b2
:10568800008040004e0a90008041eb000081eb0052
:1056980085407800960107008e1090004e08900013
:1056a80000805000a199200091407800054c8000ae
:1056b800000278008041eb000081eb0005007800d3
:1056c8008b0107001a003700a59920009542780041
:1056d800414c80001e08900000814000014c800071
:1056e800104c800000805000000041000000e900dc
:1056f8000e1290008041eb000081eb00854078009d
:105708007b0107000a003700a59920009542780020
:10571800414c80001e089000008040000e1290004e
:105728008041eb000081eb008540780070010700a4
:10573800d0498000e10f400005003a001e089000a3
:10574800d04988000e119000724988003b0037004c
:10575800d0498000800078001e089000808f50009b
:105768001c0036009e0890000e109000008140003a
:10577800d049800080007800704980000080400097
:10578800800f510006003e009e0890000e10900009
:1057980080804000d0498000808f50000300310095
:1057a8008e1190007349880007003700d0498000a7
:1057b8008000780070498000808040001e089000ba
:1057c80000805000704988001e089000d049880069
:1057d8001a0037009e0890000e10900000814000cb
:1057e800d049800080007800704980000080400027
:1057f800800f510011003600d049800080007800e9
:1058080070498000808040001e089000808f500002
:105818000a003900724980009e0890000e1090001e
:1058280080804000d049800080805000704980000e
:105838000080500000004100704988002e00900050
:105848000000e00019003200a04c8000e70f500073
:1058580002003200404c8000504c8800b04c800060
:1058680001082000010060000000e000050032008f
:1058780011c0b30000c1b30060f80700c2f0070010
:105888000a00370096e9a800b04c80000104200007
:10589800010060000000e00004003a0096c9a8007a
:1058a800e048070078004000904c88006e4890005f
:1058b8000080fb00610060000004e0004900320045
:1058c800104980002149800061024000e0824800c0
:1058d8002e0090006101b8003e009000ce009000bc
:1058e8000200400083804800800f5200818f5a00d8
:1058f8003c003a00104980002149800061004000c6
:10590800e08048001049880021498800a04c8000a8
:10591800101798009e109000e78f50001400320076
:105928001e119000e70f510004003e009e119000e8
:10593800e68f510008003200270037001e10900043
:10594800e80f5000100032009e109000e98f5000c0
:105958001c00320020003700c0002000a04c880046
:1059680011c0b30010c1b30024f807001d003700b0
:10597800b0002000a04c8800aa4807000003b0002f
:10598800904c880014003700f248800003498000da
:105998005e009000ee009000800f5100818f59004a
:1059a80005003a008040eb0000c1b30013f807007f
:1059b8003cfb07000b003700a0002000a04c88002b
:1059c800050037008040eb0000c1b3000bf807006a
:1059d80034fb07000300370011c0b30000c1b30057
:1059e80006f807000080fa00000006001000fa0020
:1059f800604798004107980052079800434f980065
:105a08006e409000e84f5000030036000000eb00a5
:105a180070079800b30037006e40900038f0070018
:105a28004e0090000000e00002003a001000200044
:105a380040079800114c8000f04b80000080500017
:105a48000000e90020079800ce0090005e0090005a
:105a5800808040002e009000808f500003003600a8
:105a68000000eb00700798009e00370046f0070022
:105a78004e4890000080fb00630060000000e000da
